{
  "contractName": "Faucet",
  "abi": [
    {
      "inputs": [],
      "name": "fundersCounter",
      "outputs": [
        {
          "internalType": "uint256",
          "name": "",
          "type": "uint256"
        }
      ],
      "stateMutability": "view",
      "type": "function",
      "constant": true
    },
    {
      "inputs": [],
      "name": "owner",
      "outputs": [
        {
          "internalType": "address",
          "name": "",
          "type": "address"
        }
      ],
      "stateMutability": "view",
      "type": "function",
      "constant": true
    },
    {
      "stateMutability": "payable",
      "type": "receive",
      "payable": true
    },
    {
      "inputs": [],
      "name": "addFunds",
      "outputs": [],
      "stateMutability": "payable",
      "type": "function",
      "payable": true
    },
    {
      "inputs": [],
      "name": "test1",
      "outputs": [],
      "stateMutability": "nonpayable",
      "type": "function"
    },
    {
      "inputs": [],
      "name": "test2",
      "outputs": [],
      "stateMutability": "nonpayable",
      "type": "function"
    },
    {
      "inputs": [
        {
          "internalType": "uint256",
          "name": "withdrawAmount",
          "type": "uint256"
        }
      ],
      "name": "withdraw",
      "outputs": [],
      "stateMutability": "nonpayable",
      "type": "function"
    },
    {
      "inputs": [
        {
          "internalType": "uint8",
          "name": "index",
          "type": "uint8"
        }
      ],
      "name": "getFunderAtIndex",
      "outputs": [
        {
          "internalType": "address",
          "name": "",
          "type": "address"
        }
      ],
      "stateMutability": "view",
      "type": "function",
      "constant": true
    },
    {
      "inputs": [],
      "name": "getAllFunders",
      "outputs": [
        {
          "internalType": "address[]",
          "name": "",
          "type": "address[]"
        }
      ],
      "stateMutability": "view",
      "type": "function",
      "constant": true
    }
  ],
  "bytecode": "0x608060405234801561001057600080fd5b50336000806101000a81548173ffffffffffffffffffffffffffffffffffffffff021916908373ffffffffffffffffffffffffffffffffffffffff160217905550610a90806100606000396000f3fe60806040526004361061007f5760003560e01c80636fbbb55d1161004e5780636fbbb55d1461011f5780637d1774251461014a5780638da5cb5b14610175578063a26759cb146101a057610086565b80630a93cf331461008b5780632e1a7d4d146100c857806366e41cb7146100f15780636b59084d1461010857610086565b3661008657005b600080fd5b34801561009757600080fd5b506100b260048036038101906100ad9190610683565b6101aa565b6040516100bf9190610795565b60405180910390f35b3480156100d457600080fd5b506100ef60048036038101906100ea919061065a565b6101ea565b005b3480156100fd57600080fd5b50610106610281565b005b34801561011457600080fd5b5061011d610311565b005b34801561012b57600080fd5b506101346103a1565b60405161014191906107b0565b60405180910390f35b34801561015657600080fd5b5061015f6104e7565b60405161016c9190610812565b60405180910390f35b34801561018157600080fd5b5061018a6104ed565b6040516101979190610795565b60405180910390f35b6101a8610511565b005b6000600360008360ff16815260200190815260200160002060009054906101000a900473ffffffffffffffffffffffffffffffffffffffff169050919050565b80670de0b6b3a7640000811115610236576040517f08c379a000000000000000000000000000000000000000000000000000000000815260040161022d906107f2565b60405180910390fd5b3373ffffffffffffffffffffffffffffffffffffffff166108fc839081150290604051600060405180830381858888f1935050505015801561027c573d6000803e3d6000fd5b505050565b60008054906101000a900473ffffffffffffffffffffffffffffffffffffffff1673ffffffffffffffffffffffffffffffffffffffff163373ffffffffffffffffffffffffffffffffffffffff161461030f576040517f08c379a0000000000000000000000000000000000000000000000000000000008152600401610306906107d2565b60405180910390fd5b565b60008054906101000a900473ffffffffffffffffffffffffffffffffffffffff1673ffffffffffffffffffffffffffffffffffffffff163373ffffffffffffffffffffffffffffffffffffffff161461039f576040517f08c379a0000000000000000000000000000000000000000000000000000000008152600401610396906107d2565b60405180910390fd5b565b6060600060015467ffffffffffffffff8111156103e7577f4e487b7100000000000000000000000000000000000000000000000000000000600052604160045260246000fd5b6040519080825280602002602001820160405280156104155781602001602082028036833780820191505090505b50905060005b6001548110156104df576003600082815260200190815260200160002060009054906101000a900473ffffffffffffffffffffffffffffffffffffffff16828281518110610492577f4e487b7100000000000000000000000000000000000000000000000000000000600052603260045260246000fd5b602002602001019073ffffffffffffffffffffffffffffffffffffffff16908173ffffffffffffffffffffffffffffffffffffffff168152505080806104d790610916565b91505061041b565b508091505090565b60015481565b60008054906101000a900473ffffffffffffffffffffffffffffffffffffffff1681565b6000339050600260008273ffffffffffffffffffffffffffffffffffffffff1673ffffffffffffffffffffffffffffffffffffffff16815260200190815260200160002060009054906101000a900460ff1661062d578060036000600154815260200190815260200160002060006101000a81548173ffffffffffffffffffffffffffffffffffffffff021916908373ffffffffffffffffffffffffffffffffffffffff16021790555060018060008282546105cd9190610877565b925050819055506001600260008373ffffffffffffffffffffffffffffffffffffffff1673ffffffffffffffffffffffffffffffffffffffff16815260200190815260200160002060006101000a81548160ff0219169083151502179055505b50565b60008135905061063f81610a2c565b92915050565b60008135905061065481610a43565b92915050565b60006020828403121561066c57600080fd5b600061067a84828501610630565b91505092915050565b60006020828403121561069557600080fd5b60006106a384828501610645565b91505092915050565b60006106b883836106c4565b60208301905092915050565b6106cd816108cd565b82525050565b6106dc816108cd565b82525050565b60006106ed8261083d565b6106f78185610855565b93506107028361082d565b8060005b8381101561073357815161071a88826106ac565b975061072583610848565b925050600181019050610706565b5085935050505092915050565b600061074d602183610866565b91506107588261098e565b604082019050919050565b6000610770603d83610866565b915061077b826109dd565b604082019050919050565b61078f816108ff565b82525050565b60006020820190506107aa60008301846106d3565b92915050565b600060208201905081810360008301526107ca81846106e2565b905092915050565b600060208201905081810360008301526107eb81610740565b9050919050565b6000602082019050818103600083015261080b81610763565b9050919050565b60006020820190506108276000830184610786565b92915050565b6000819050602082019050919050565b600081519050919050565b6000602082019050919050565b600082825260208201905092915050565b600082825260208201905092915050565b6000610882826108ff565b915061088d836108ff565b9250827fffffffffffffffffffffffffffffffffffffffffffffffffffffffffffffffff038211156108c2576108c161095f565b5b828201905092915050565b60006108d8826108df565b9050919050565b600073ffffffffffffffffffffffffffffffffffffffff82169050919050565b6000819050919050565b600060ff82169050919050565b6000610921826108ff565b91507fffffffffffffffffffffffffffffffffffffffffffffffffffffffffffffffff8214156109545761095361095f565b5b600182019050919050565b7f4e487b7100000000000000000000000000000000000000000000000000000000600052601160045260246000fd5b7f4f6e6c79206f776e65722063616e2063616c6c20746869732066756e6374696f60008201527f6e00000000000000000000000000000000000000000000000000000000000000602082015250565b7f546f6f20686967682076616c75652c20747279206c6f776572696e672069742060008201527f6f7220776974686472617720697420696e20696e6372656d656e74732e000000602082015250565b610a35816108ff565b8114610a4057600080fd5b50565b610a4c81610909565b8114610a5757600080fd5b5056fea2646970667358221220ee36432d82d67f30cc4d4364cc68df2997c188b913c1b097a07aa96ebf9dc9c164736f6c63430008040033",
  "immutableReferences": {},
  "source": "// SPDX-License-Identifier: MIT\npragma solidity >=0.4.22 <0.9.0;\n\nimport \"./Owned.sol\";\nimport \"./IFaucet.sol\";\n\n// difference between public and external is that latter just allows function calls from outside\n// whereas former allows function calls from within as well.\ncontract Faucet is Owned, IFaucet {\n    uint public fundersCounter;\n    mapping(address => bool) funders;\n    mapping(uint => address) fundersMapping;\n    // address[] private funders;\n\n    modifier limitWithdraw(uint withdrawAmount) {\n        require(withdrawAmount <= 1000000000000000000, \"Too high value, try lowering it or withdraw it in increments.\");\n        _;\n    }\n\n    receive() external payable {}\n\n    function addFunds() external override payable {\n        address funder = msg.sender;\n        if (!funders[funder]) {\n            fundersMapping[fundersCounter] = funder;\n            fundersCounter += 1;\n            funders[funder] = true;\n        }\n    }\n\n    function test1() external onlyOwner {\n        // only admin\n    }\n\n    function test2() external onlyOwner {\n        // only admin\n    }\n\n    function withdraw(uint withdrawAmount) external override limitWithdraw(withdrawAmount) {\n        payable(msg.sender).transfer(withdrawAmount);\n    }\n\n    function getFunderAtIndex(uint8 index) external view returns(address) {\n        // address[] memory _funderList = getAllFunders();\n        return fundersMapping[index];\n    }\n\n    function getAllFunders() external view returns(address[] memory) {\n        address[] memory _funderList = new address[](fundersCounter);\n\n        for(uint i = 0; i < fundersCounter; i++) {\n            _funderList[i] = fundersMapping[i];\n        }\n        return _funderList;\n    }\n}\n\n\n// truffle console\n// const instance = await Faucet.deployed()\n// const result = await instance.",
  "sourcePath": "/Users/anshdubey/Desktop/LifeStone/frontend/lifestone-react-ui/contracts/FaucetContract.sol",
  "compiler": {
    "name": "solc",
    "version": "0.8.4+commit.c7e474f2.Emscripten.clang"
  },
  "schemaVersion": "3.4.3",
  "updatedAt": "2023-01-08T14:08:57.495Z",
  "networkType": "ethereum",
  "devdoc": {
    "kind": "dev",
    "methods": {},
    "version": 1
  },
  "userdoc": {
    "kind": "user",
    "methods": {},
    "version": 1
  }
}