{
  "contractName": "UserData",
  "abi": [
    {
      "inputs": [],
      "name": "userDataIndexCounter",
      "outputs": [
        {
          "internalType": "uint256",
          "name": "",
          "type": "uint256"
        }
      ],
      "stateMutability": "view",
      "type": "function",
      "constant": true
    },
    {
      "inputs": [
        {
          "internalType": "bytes32",
          "name": "userDataHash",
          "type": "bytes32"
        }
      ],
      "name": "storeUserData",
      "outputs": [
        {
          "internalType": "bytes32",
          "name": "",
          "type": "bytes32"
        }
      ],
      "stateMutability": "nonpayable",
      "type": "function"
    }
  ],
  "bytecode": "0x608060405234801561001057600080fd5b50610254806100206000396000f3fe608060405234801561001057600080fd5b50600436106100365760003560e01c80636b8a8fb01461003b578063f384b60714610059575b600080fd5b610043610089565b6040516100509190610153565b60405180910390f35b610073600480360381019061006e91906100f1565b61008f565b6040516100809190610138565b60405180910390f35b60005481565b6000600182908060018154018082558091505060019003906000526020600020016000909190919091505560016000808282546100cc919061016e565b9250508190555043409050919050565b6000813590506100eb81610207565b92915050565b60006020828403121561010357600080fd5b6000610111848285016100dc565b91505092915050565b610123816101c4565b82525050565b610132816101ce565b82525050565b600060208201905061014d600083018461011a565b92915050565b60006020820190506101686000830184610129565b92915050565b6000610179826101ce565b9150610184836101ce565b9250827fffffffffffffffffffffffffffffffffffffffffffffffffffffffffffffffff038211156101b9576101b86101d8565b5b828201905092915050565b6000819050919050565b6000819050919050565b7f4e487b7100000000000000000000000000000000000000000000000000000000600052601160045260246000fd5b610210816101c4565b811461021b57600080fd5b5056fea264697066735822122088e473a2b431a1e3ce6d9ffb78d190784d639476a6292d0ac16566187ed1e89864736f6c63430008040033",
  "immutableReferences": {},
  "source": "// SPDX-License-Identifier: MIT\npragma solidity >=0.4.22 <0.9.0;\n\n// difference between public and external is that latter just allows function calls from outside\n// whereas former allows function calls from within as well.\ncontract UserData {\n    uint public userDataIndexCounter;\n    bytes32[] private userData;\n\n    function storeUserData(bytes32 userDataHash) external returns(bytes32) {\n        userData.push(userDataHash);\n        userDataIndexCounter += 1;\n        return blockhash(block.number);\n    }\n}\n\n\n// truffle console\n// const instance = await Faucet.deployed()\n// const result = await instance.",
  "sourcePath": "/Users/anshdubey/Desktop/LifeStone/frontend/lifestone-react-ui/contracts/UserDataContract.sol",
  "compiler": {
    "name": "solc",
    "version": "0.8.4+commit.c7e474f2.Emscripten.clang"
  },
  "schemaVersion": "3.4.3",
  "updatedAt": "2023-01-08T14:08:58.368Z",
  "networkType": "ethereum",
  "devdoc": {
    "kind": "dev",
    "methods": {},
    "version": 1
  },
  "userdoc": {
    "kind": "user",
    "methods": {},
    "version": 1
  }
}